:020000040800F2
:100000000050002011090008E5080008E708000872
:10001000E9080008EB080008ED08000800000000EF
:10002000000000000000000000000000EF080008D1
:10003000F108000800000000F3080008F5080008B7
:100040005909000859090008590900085909000808
:1000500059090008590900085909000859090008F8
:1000600059090008590900085909000859090008E8
:1000700059090008590900085909000859090008D8
:10008000FD08000859090008590900085909000825
:1000900059090008590900085909000859090008B8
:1000A00059090008590900085909000859090008A8
:1000B0005909000859090008590900085909000898
:1000C0005909000859090008590900085909000888
:1000D0005909000859090008590900085909000878
:1000E00059090008590900085909000800000000D2
:1000F0000000000000000000000000000000000000
:0C01000000000000000000005FF808F1A3
:10010C0010B5054C237833B9044B13B10448AFF345
:10011C0000800123237010BD340F0020000000006C
:10012C002C1D000808B5034B1BB103490348AFF362
:10013C00008008BD00000000380F00202C1D0008B6
:10014C0000B583B00A4B5A6942F001025A615B69EF
:10015C0003F001030193019B00221146102000F0D3
:10016C0067FC102000F09CFC03B05DF804FB00BFA2
:10017C00001002402DE9F04188B00024049405944D
:10018C0006940794254B9A6942F010029A619A6979
:10019C0002F010020092009A9A6942F020029A61D1
:1001AC009A6902F020020192019A9A6942F00402C3
:1001BC009A619A6902F004020292029A9A6942F0D8
:1001CC0008029A619B6903F008030393039BDFF811
:1001DC00508022464FF40051404600F06DFE114D08
:1001EC0022460721284600F067FE4FF40053049383
:1001FC000127059706940226079604A9404600F0AD
:10020C0049FD0723049305970694079604A92846ED
:10021C0000F040FD08B0BDE8F08100BF00100240C6
:10022C00001001400008014008B50B480B4B03605F
:10023C000B4B436000238360C3604FF48042026128
:10024C0043618361C361036200F0E0FF00B908BD44
:10025C0000F054F8FBE700BF940F0020005400405E
:10026C00801A060030B587B00023029303930493E1
:10027C00059302681C4B9A4201D007B030BD04466E
:10028C001A4DAB6943F00803AB61AB6903F008038B
:10029C000093009BC0230293122303930323059323
:1002AC0002A9134800F0F6FCEB6943F40013EB6170
:1002BC00EB6903F400130193019B0E480E4B036092
:1002CC0010234360002383608022C260036143617A
:1002DC008361C36100F006FC18B9064B63635C6272
:1002EC00CBE700F00BF8F8E7005400400010024098
:1002FC00000C0140500F00206C00024072B6FEE76B
:10030C0000B591B02822002106A801F047FC00237B
:10031C000193029303930493059302230693012202
:10032C000A9210220B920D934FF4C0130F9306A850
:10033C0001F012F978B90F230193022302930023E1
:10034C00039304930593012101A801F037FB20B915
:10035C0011B05DF804FBFFF7D1FFFFF7CFFF0000F2
:10036C0010B582B000F01AFBFFF7CAFFFFF702FFCF
:10037C00FFF7E6FEFFF758FF00F020FA002000F030
:10038C0097F8002000F0A4F820240DE0102300932F
:10039C00032322460221672000F046F94FF4FA703D
:1003AC0000F020FB00F0C0F8304B0093202380229B
:1003BC000021084600F0D2F94FF4FA7000F012FB5D
:1003CC0000F0B2F8102300221146104600F094F908
:1003DC00102301220021122000F08EF9102302229A
:1003EC000021242000F088F910230322002136205C
:1003FC0000F082F9102304220021482000F07CF93F
:10040C001023052200215A2000F076F91023062231
:10041C0000216C2000F070F91023154A02210820ED
:10042C0000F04EF94FF4FA7000F0DCFA00F07CF8B2
:10043C001023104A0021142000F042F910230E4A18
:10044C000221002000F03CF910230C4A02213F202D
:10045C0000F036F9102322460221302000F086F8F5
:10046C000134E4B27E2C91D920248FE700000020C7
:10047C00441D0008541D0008601D0008681D00087C
:10048C0000B587B08DF817000A4601B140224FF431
:10049C0080730293012301930DF1170100917821D0
:1004AC00024800F091FF07B05DF804FB940F0020A8
:1004BC0010B5044610B1012C05D010BD0021A620AA
:1004CC00FFF7DEFFF7E70021A720FFF7D9FFF4E7DE
:1004DC0010B5044610B1012C09D010BD0021C82064
:1004EC00FFF7CEFF0021A120FFF7CAFFF3E70021A1
:1004FC00C020FFF7C5FF0021A020FFF7C1FFECE7EC
:10050C0010B50446A1F150000021C0B2FFF7B8FFAE
:10051C002009002140F01000FFF7B2FF002104F089
:10052C000F00FFF7ADFF10BD38B500250AE0012123
:10053C000020FFF7A5FF0134E4B214F0800FF6D0D1
:10054C000135EDB2032D0FD8A5F150000021C0B23A
:10055C00FFF796FF00210846FFF792FF00211020BD
:10056C00FFF78EFF0024E8E738BD00002DE9F04FBF
:10057C0083B001908A461D465E08082B11D013F0FB
:10058C00070918BF4FF0010909EBD30909FB06F95C
:10059C00203A5FFA82F851460198FFF7B1FF002428
:1005AC000FE04FF00609F3E7082D1FD0102D27D1CF
:1005BC00154B03EB08130121D85DFFF761FF0134E4
:1005CC00A4B24C451CD2274694FBF6F306FB13430E
:1005DC00002BE9D1082DE7D00AF1010B5FFA8BFB58
:1005EC0051460198FFF78CFFDA46DDE708EB48032C
:1005FC00064A02EB43030121D85DFFF741FFDEE71A
:10060C0003B0BDE8F08F00BF08050020E002002019
:10061C000246012002E002FB00F019464B1EDBB241
:10062C000029F8D1704700002DE9F84F81468A4621
:10063C0090461D469DF82860082E04D04FF0000B04
:10064C0000273C461AE04FF0020BF9E70BEB560083
:10065C0000FB0490334620225146C0B2FFF786FFC0
:10066C000AE030320BEB560000FB04903346D2B25A
:10067C005146C0B2FFF77AFF0134E4B2AC421AD251
:10068C00291BC9B20139C9B20A20FFF7C1FFB8FB57
:10069C00F0F00A4AA2FB0032D20802EB8202A0EB75
:1006AC004202D2B2002FDCD16B1E9C42D9DA002A56
:1006BC00CCD00127D5E7BDE8F88F00BFCDCCCCCC92
:1006CC002DE9F0410446884617461E46002501E0F8
:1006DC000634E4B27A5D62B10135EDB2334641467F
:1006EC002046FFF743FF082EF2D004EB5604E4B289
:1006FC00F0E7BDE8F08100002DE9F84F834689460C
:10070C0092461E4613F0070818BF4FF0010808EB7D
:10071C00D30808FB03F800240AE0102E1AD10E4B64
:10072C0003EB4A130121D85DFFF7AAFE0134A4B2F2
:10073C0044450FD2274694FBF6F506FB1545002DD4
:10074C00EBD109F10105EDB249465846FFF7D8FE49
:10075C00A946E2E7BDE8F88F000200202DE9F04F32
:10076C0083B001908B461746DDF8308013F0070AF2
:10077C0018BF4FF0010A0AEBD30A4FF000094E469E
:10078C000FE0751CADB2012118F80600FFF778FEDA
:10079C000134E4B22E46BC42F3D309F101095FFAED
:1007AC0089F9D14507D209EB0B01C9B20198FFF7C2
:1007BC00A7FE0024EFE703B0BDE8F08F08B54FF4B7
:1007CC007A7000F00FF90021AE20FFF759FE0021DE
:1007DC000846FFF755FE00211020FFF751FE0021BF
:1007EC000846FFF74DFE0021B020FFF749FE00211F
:1007FC008120FFF745FE0021FF20FFF741FE00217D
:10080C00A120FFF73DFE0021A620FFF739FE0021B5
:10081C00A820FFF735FE00211F20FFF731FE002135
:10082C00C820FFF72DFE0021D320FFF729FE002161
:10083C000846FFF725FE0021D520FFF721FE0021F9
:10084C008020FFF71DFE0021D920FFF719FE0021A3
:10085C001F20FFF715FE0021DA20FFF711FE002103
:10086C000846FFF70DFE0021DB20FFF709FE0021F3
:10087C004020FFF705FE00218D20FFF701FE00212F
:10088C001420FFF7FDFDFFF74FFE0021AF20FFF70F
:10089C00F7FD08BD82B00E4B9A6942F001029A61D5
:1008AC009A6902F001020092009ADA6942F08052D1
:1008BC00DA61DB6903F080530193019B054A5368AD
:1008CC0023F0E06343F00073536002B0704700BF45
:1008DC000010024000000140FEE7FEE7FEE7FEE7E5
:1008EC00FEE770477047704708B500F069F808BD1F
:1008FC0008B5024800F02CF908BD00BF500F0020CD
:10090C0070470000FFF7FCFF0B480C490C4A002312
:10091C0002E0D458C4500433C4188C42F9D3094AA9
:10092C00094C002301E013600432A242FBD301F016
:10093C0011F9FFF715FD704700000020340F00205F
:10094C00AC1D0008340F0020F00F0020FEE7000063
:10095C0010B504460E4B18784FF47A73B3FBF0F3D2
:10096C000C4A1068B0FBF3F000F0A8F868B90F2C33
:10097C0001D901200AE0002221464FF0FF3000F09F
:10098C0057F8054B1C60002000E0012010BD00BF93
:10099C00FC0A0020F80A0020000B002008B5074ACA
:1009AC00136843F010031360032000F02FF80F209E
:1009BC00FFF7CEFFFFF76EFF002008BD00200240BE
:1009CC00034A1168034B1B780B441360704700BF3C
:1009DC00E80F0020FC0A0020014B1868704700BF8C
:1009EC00E80F002038B50446FFF7F6FF0546B4F1D2
:1009FC00FF3F02D0044B1B781C44FFF7EDFF401B5C
:100A0C00A042FAD338BD00BFFC0A0020074AD368C5
:100A1C0023F4E0631B041B0C000200F4E0600343AE
:100A2C0043F0BF6343F40033D360704700ED00E044
:100A3C0000B5194BDB68C3F30223C3F1070CBCF1FF
:100A4C00040F28BF4FF0040C03F1040EBEF1060F87
:100A5C0018D9033B4FF0FF3E0EFA0CFC21EA0C01B7
:100A6C0099400EFA03F322EA0303194300280BDB27
:100A7C000901C9B200F1604000F5614080F8001333
:100A8C005DF804FB0023E5E700F00F000901C9B293
:100A9C00024B1954F4E700BF00ED00E014ED00E048
:100AAC00002807DB00F01F02400901239340024A93
:100ABC0042F82030704700BF00E100E00138B0F18F
:100ACC00807F0BD24FF0E0235861054AF02182F869
:100ADC0023100020986107221A617047012070478B
:100AEC0000ED00E060B310B402460168154B0B44F6
:100AFC001548A0FB03031B099B001364134BD36322
:100B0C00022382F82130086820F47F5020F0300056
:100B1C00536894682343D46823431469234354696A
:100B2C00234394692343D469234303430B6000207C
:100B3C009063012382F8213082F8200010BC7047AA
:100B4C0001207047F8FFFDBFCDCCCCCC000002409B
:100B5C0038B5C36B1A6804682568016C04238B4094
:100B6C00134235D015F0040F32D0236813F0200F48
:100B7C0003D1236823F0040323600368434A9342A0
:100B8C0014D01432934218D01432934217D014322A
:100B9C00934217D01432934217D01432934202D09E
:100BAC004FF0806203E04FF4800200E00422384BE7
:100BBC005A60C36A03B1984738BD4022F7E74FF437
:100BCC008062F4E74FF48042F1E74FF48022EEE7C5
:100BDC0002238B4013423CD015F0020F39D023680E
:100BEC0013F0200F06D1236823F00A03236001239E
:100BFC0080F821300368254A934214D01432934272
:100C0C001CD0143293421BD0143293421BD014329A
:100C1C0093421BD01432934202D04FF0007203E087
:100C2C004FF4001200E00222194B5A60002380F8A6
:100C3C002030836A002BBFD09847BDE72022F3E712
:100C4C004FF40072F0E74FF40052EDE74FF400322E
:100C5C00EAE7082303FA01F11142ADD015F0080FB1
:100C6C00AAD0236823F00E032360026CC16B01230E
:100C7C0003FA02F24A60836380F82130002380F883
:100C8C002030036B002B97D0984795E70800024063
:100C9C000000024070B582B00024A446A6E0804D4E
:100CAC00AA4210D007D97F4DAA420CD005F5803549
:100CBC00AA4208D013E0A5F58015AA4203D005F589
:100CCC007025AA4207D18A68002A58D0012A51D02F
:100CDC004361082403E0A5F58015AA42F3D0BEF1C8
:100CEC00FF0F4ED80646BEF1FF0F4CD84FEA8C02D0
:100CFC0033680F25954023EA050304FA02F21343E7
:100D0C0033604B6813F0805F6ED0674B9A6942F08A
:100D1C0001029A619B6903F001030193019B4FEA65
:100D2C009C02951C614B53F825600CF003039D004D
:100D3C000F23AB4026EA03065D4B984229D003F5FE
:100D4C008063984200F08E8003F58063984200F037
:100D5C008B8003F58063984219D004231AE0CC6889
:100D6C00BDE7CC680434BAE7CC680834B7E7CC6884
:100D7C000C34B4E703610824B1E70024AFE7042482
:100D8C00ADE7061DAFE7ACF108029200B0E7032314
:100D9C0000E00023AB4033430232444D45F822308F
:100DAC004B6813F4801F61D0424A936843EA0E03E8
:100DBC0093604B6813F4001F5ED03E4AD36843EA3D
:100DCC000E03D3604B6813F4003F5BD0394A536871
:100DDC0043EA0E0353604B6813F4803F58D0354AF6
:100DEC00136843EA0E0313600CF1010C0A6832FA23
:100DFC000CF353D0012303FA0CF302EA030E33EA8B
:100E0C000202F1D14A68122A3FF649AF122A3FF684
:100E1C0066AF01A555F822F0D30C00086B0D000845
:100E2C00750D0008870D0008EB0C0008EB0C000892
:100E3C00EB0C0008EB0C0008EB0C0008EB0C0008AA
:100E4C00EB0C0008EB0C0008EB0C0008EB0C00089A
:100E5C00EB0C0008EB0C0008EB0C00086F0D000805
:100E6C007B0D0008012395E7022393E7114A936851
:100E7C0023EA0E0393609CE70E4AD36823EA0E0321
:100E8C00D3609FE70B4A536823EA0E035360A2E733
:100E9C00084A136823EA0E031360A5E702B070BD7D
:100EAC000000221000003110001002400000014030
:100EBC0000080140000401400AB1016170470904B7
:100ECC000161704703685A6912F4806F01D10020E8
:100EDC0070476FF480625A6100230363202280F80C
:100EEC003D2080F83E30026C42F00402026480F82F
:100EFC003C30012070472DE9F04106460C46174660
:100F0C0098463BE0FFF768FD069BC01A404502D8A7
:100F1C00B8F1000F32D1012D18D033689B6924EA47
:100F2C0003039BB2B3FA83F35B099F4226D10023E0
:100F3C003363202286F83D2086F83E30326C42F036
:100F4C002002326486F83C30012027E033685B696C
:100F5C0024EA03039BB2B3FA83F35B09E5E7336836
:100F6C005B6924EA030C1FFA8CFCBCFA8CFC4FEA7C
:100F7C005C1C674511D1B8F1FF3FC3D1C4F30745E1
:100F8C00012DECD033689B6924EA030C1FFA8CFC0E
:100F9C00BCFA8CFC4FEA5C1CEBE70020BDE8F0814E
:100FAC002DE9F84305460E469046994653E01A68DB
:100FBC0042F400721A602B686FF480625A6100234D
:100FCC002B63202285F83D2085F83E302A6C42F0B8
:100FDC0004022A6485F83C3001204AE0FFF7FCFC4F
:100FEC00A0EB0900404502D8B8F1000F33D1012F16
:100FFC0017D02B689B6926EA03039BB2003B18BFF2
:10100C00012343B300232B63202285F83D2085F870
:10101C003E302A6C42F020022A6485F83C300120D4
:10102C0027E02B685B6926EA03039BB2003B18BFE1
:10103C000123E6E72B689C6926EA0404A4B2003C71
:10104C0018BF0124A4B12B685A6912F4806FAED179
:10105C00B8F1FF3FC2D1C6F30747012FEAD12B6885
:10106C005C6926EA0404A4B2003C18BF0124E9E739
:10107C000020BDE8F88370B504460D46164623687B
:10108C005B6913F0800F21D12046FFF71BFFF8B9E5
:10109C00B5F1FF3FF3D0FFF79FFC801BA84201D8AE
:1010AC00002DECD123685B6913F0800FE7D100238E
:1010BC002363202284F83D2084F83E30226C42F0D9
:1010CC002002226484F83C30012000E0002070BD36
:1010DC000120FCE72DE9F04385B004460D4691460E
:1010EC001F46DDF830800D9E0368196841F480714D
:1010FC0019600096434600224FF00111FFF7FBFEEA
:10110C0060B9236805F0FE051D6133464246264949
:10111C002046FFF745FF68B1012008E023681B68F3
:10112C0013F4807F02D04FF400732364032005B0C6
:10113C00BDE8F0830023039323685A6903929B69EB
:10114C000393039B324641462046FFF794FF30B988
:10115C00012F0FD123685FFA89F61E61E7E7236C34
:10116C00042B01D00120E2E72268136843F40073DA
:10117C001360F7E723684FEA19221A613246414699
:10118C002046FFF778FF20B923685FFA89F61E61C5
:10119C00CDE7236C042B01D00120C8E7226813682B
:1011AC0043F400731360F7E70200010070B50446C6
:1011BC000D46164623685B6913F0040F21D12046B7
:1011CC00FFF780FEF8B9B5F1FF3FF3D0FFF704FC51
:1011DC00801BA84201D8002DECD123685B6913F069
:1011EC00040FE7D100232363202284F83D2084F8E8
:1011FC003E30226C42F02002226484F83C30012004
:10120C0000E0002070BD0120FCE70000002800F089
:10121C00CC8070B5044690F83D30002B77D0242359
:10122C0084F83D302268136823F0010313602268B0
:10123C00136843F4004313602268136823F40043DB
:10124C00136000F077FC62685A4B9A4264D85A4B90
:10125C0098428CBF00230123002B40F0A8805749F3
:10126C00A1FB00318B0C25686A6822F03F0242EA30
:10127C0091426A6021680A6A22F03F0266684D4D0D
:10128C00AE424FD8013313430B622168CA6922F472
:10129C004F4222F0FF026668464B9E424CD8431EDA
:1012AC007600B3FBF6F3013340F6FC70034278D0C2
:1012BC00C3F30B031343CB6121680B6823F0C0030A
:1012CC00E269206A024313430B6021688B6823F4A4
:1012DC00034323F0FF032269E068024313438B604E
:1012EC002168CB6823F0FF036269A06902431343B2
:1012FC00CB602268136843F0010313600020206464
:10130C00202384F83D30206384F83E0070BD80F8C3
:10131C003C30FEF7A7FF82E7294B98428CBF002395
:10132C00012399E74FF4967505FB03F3254DA5FBB7
:10133C0003539B090133A6E7A368BBB9451E06EB13
:10134C00460CB5FBFCF50135C5F30B05B5FA85F577
:10135C006D0945BBC3B9013806EB4603B0FBF3F38B
:10136C000133C3F30B0343F40043A3E7451E06EB21
:10137C00860C0CEB8C0CB5FBFCF50135C5F30B05A1
:10138C00B5FA85F56D09E4E7013806EB860303EB46
:10139C008303B0FBF3F30133C3F30B0343F4404378
:1013AC0088E7042386E7012384E7012070470120A6
:1013BC00ACE700BFA08601007F841E0083DE1B43C8
:1013CC00FF083D00D34D62102DE9F04383B0044675
:1013DC000F46904699460C9EFFF7FEFA054694F888
:1013EC003D00C0B2202803D0022003B0BDE8F0833A
:1013FC000095192301224B492046FFF77CFD00285C
:10140C0040F0898094F83C30012B00F08680012359
:10141C0084F83C3023681A6812F0010F03D11A6863
:10142C0042F001021A602268136823F4006313600F
:10143C00212384F83D30402384F83E30002323647C
:10144C000A9B6362BDF82C306385638D2385364B14
:10145C00E362019500964B46424639462046FFF71B
:10146C0039FE00285BD1238D002B35D02A4631461E
:10147C002046FFF700FE20BB626A236812781A61CF
:10148C00626A531C6362218D013989B22185638D97
:10149C009BB2013B9BB263852368586910F0040F23
:1014AC00E1D00029DFD052781A61636A013363629C
:1014BC00238D013B2385638D9BB2013B9BB26385DE
:1014CC00D1E7236C042B01D001208EE7226813682E
:1014DC0043F400731360F7E72A4631462046FFF7C2
:1014EC0065FE50B1236C042B01D001207DE72268EE
:1014FC00136843F400731360F7E72268136843F42E
:10150C0000731360202384F83D30002384F83E30B0
:10151C0084F83C3069E7022067E7022065E7012088
:10152C0063E700BF020010000000FFFF82B0084B11
:10153C001B68084AA2FB03235B0A00FB03F301931D
:10154C0000BF019B5A1E0192002BF9D102B07047CB
:10155C00F80A0020D34D6210002800F0F18170B51C
:10156C0082B00446036813F0010F2CD0994B5B68D2
:10157C0003F00C03042B1DD0964B5B6803F00C039B
:10158C00082B12D06368B3F5803F41D0002B55D1A6
:10159C0003F1804303F504331A6822F480321A6095
:1015AC001A6822F480221A6037E08A4B5B6813F4C5
:1015BC00803FE7D0874B1B6813F4003F03D0636870
:1015CC00002B00F0BF81236813F0020F75D0814B04
:1015DC005B6813F00C0F5FD07E4B5B6803F00C0361
:1015EC00082B54D02369002B00F08A807A4B0122FF
:1015FC001A60FFF7F1F90546764B1B6813F0020FE2
:10160C0075D1FFF7E9F9401B0228F5D903209EE1BB
:10161C00704A136843F480331360636843B3FFF775
:10162C00DBF905466B4B1B6813F4003FCBD1FFF77E
:10163C00D3F9401B6428F5D9032088E1B3F5A02F1A
:10164C0009D0644B1A6822F480321A601A6822F4AA
:10165C0080221A60E1E703F18043A3F53C331A685A
:10166C0042F480221A601A6842F480321A60D4E77D
:10167C00FFF7B2F90546574B1B6813F4003FA2D095
:10168C00FFF7AAF9401B6428F5D903205FE1514B01
:10169C005B6813F4803FA5D14E4B1B6813F0020F0F
:1016AC0003D02369012B40F04F814A4A136823F081
:1016BC00F803616943EAC1031360236813F0080F50
:1016CC0033D0A369002B5CD0434B0122C3F8802498
:1016DC00FFF782F905463F4B5B6A13F0020F21D1ED
:1016EC00FFF77AF9401B0228F5D903202FE1394A7C
:1016FC00136823F0F803616943EAC1031360DCE764
:10170C00354B00221A60FFF767F90546314B1B6811
:10171C0013F0020FD1D0FFF75FF9401B0228F5D967
:10172C00032014E10120FFF701FF236813F0040FDD
:10173C0000F09680274BDB6913F0805F34D1254B8A
:10174C00DA6942F08052DA61DB6903F0805301936D
:10175C00019B0125214B1B6813F4807F26D0E36885
:10176C00012B3DD0002B53D103F1804303F50433FF
:10177C001A6A22F001021A621A6A22F004021A6230
:10178C0033E0154B0022C3F88024FFF725F90546FA
:10179C00104B5B6A13F0020FC7D0FFF71DF9401B0B
:1017AC000228F5D90320D2E00025D3E70B4A1368B1
:1017BC0043F480731360FFF70FF90646074B1B6861
:1017CC0013F4807FCBD1FFF707F9801B6428F5D980
:1017DC000320BCE0001002400000424200700040B8
:1017EC005F4A136A43F001031362E36833B3FFF7F4
:1017FC00F3F806465A4B1B6A13F0020F2FD1FFF772
:10180C00EBF8801B41F288339842F3D903209EE019
:10181C00052B09D0524B1A6A22F001021A621A6A7D
:10182C0022F004021A62E0E74D4B1A6A42F00402FD
:10183C001A621A6A42F001021A62D6E7FFF7CCF874
:10184C000646474B1B6A13F0020F08D0FFF7C4F88B
:10185C00801B41F288339842F3D9032077E0E5B935
:10186C00E369002B72D03E4A526802F00C02082A3F
:10187C0056D0022B17D03B4B00221A66FFF7ACF860
:10188C000446374B1B6813F0007F47D0FFF7A4F8D2
:10189C00001B0228F5D9032059E0314AD36923F003
:1018AC008053D361DCE72F4B00221A66FFF794F8C4
:1018BC0005462B4B1B6813F0007F06D0FFF78CF806
:1018CC00401B0228F5D9032041E0236AB3F5803F81
:1018DC001AD023494B6823F47413226A606A0243BA
:1018EC0013434B601F4B01221A66FFF775F8044631
:1018FC001B4B1B6813F0007F0ED1FFF76DF8001B1C
:10190C000228F5D9032022E0154A536823F400334A
:10191C00A1680B435360DCE7002018E0002016E0C0
:10192C00012B16D00E4B5B6803F48031226A914276
:10193C0011D103F47013626A93420ED1002006E0B9
:10194C0001207047012002E0012000E0002002B0DD
:10195C0070BD0120FBE70120F9E70120F7E700BF8C
:10196C0000100240000042420F4B5B6803F00C0277
:10197C00082A01D00D487047C3F383420C49885C98
:10198C0013F4803F0BD0084B5B68C3F34043094A08
:10199C00D35C064A02FB00F0B0FBF3F07047064B39
:1019AC0003FB00F0704700BF0010024000127A00E9
:1019BC00881D0008981D000800093D00002800F053
:1019CC00A08070B50D460446524B1B6803F007030C
:1019DC008B420BD24F4A136823F007030B4313605F
:1019EC00136803F007038B4240F08D80236813F0DB
:1019FC00020F17D013F0040F04D0474A536843F476
:101A0C00E0635360236813F0080F04D0424A536814
:101A1C0043F460535360404A536823F0F003A168C9
:101A2C000B435360236813F0010F31D06368012B13
:101A3C0020D0022B25D0384A126812F0020F64D045
:101A4C0035494A6822F0030213434B60FEF7C4FF8A
:101A5C000646314B5B6803F00C036268B3EB820FF4
:101A6C0016D0FEF7B9FF801B41F288339842F0D9AB
:101A7C00032045E0284A126812F4003FE0D101200F
:101A8C003EE0254A126812F0007FD9D1012037E0E0
:101A9C00204B1B6803F00703AB420AD91D4A13689D
:101AAC0023F007032B431360136803F00703AB42C7
:101ABC002DD1236813F0040F06D0174A536823F472
:101ACC00E063E1680B435360236813F0080F07D001
:101ADC00114A536823F46053216943EAC1035360EC
:101AEC00FFF742FF0C4B5B68C3F303130B4AD35C49
:101AFC00D8400B4B18600B4B1868FEF729FF0020E1
:101B0C0070BD012070470120FAE70120F8E70120A1
:101B1C00F6E700BF0020024000100240701D0008D4
:101B2C00F80A0020000B0020014B1868704700BF1A
:101B3C00F80A002008B5FFF7F7FF044B5B68C3F306
:101B4C000223034AD35CD84008BD00BF00100240FA
:101B5C00801D000870B50D4E0D4D761BB61006D0CD
:101B6C00002455F8043B01349847A642F9D1094E9C
:101B7C00094D00F0D5F8761BB61006D0002455F8A8
:101B8C00043B01349847A642F9D170BDA01D000852
:101B9C00A01D0008A81D0008A01D0008830730B573
:101BAC0048D0541E002A3FD00346CAB201E0013C83
:101BBC003AD303F8012B9D07F9D1032C2DD9CDB2C3
:101BCC0045EA05250F2C45EA054536D9A4F1100246
:101BDC0022F00F0C03F1200EE6444FEA121C03F125
:101BEC00100242E9045542E9025510327245F8D10F
:101BFC000CF1010214F00C0F03EB021204F00F0CA9
:101C0C0013D0ACF1040323F003030433134442F860
:101C1C00045B9342FBD10CF003042CB1CAB21C44FC
:101C2C0003F8012B9C42FBD130BD64461346002CBB
:101C3C00F4D1F9E703461446BFE71A46A446E0E799
:101C4C00024B13B1024800F005B8704700000000C9
:101C5C006D1C0008002301461A46184600F01AB8FD
:101C6C0038B5084B084D5B1B9C1007D0043B1D443A
:101C7C00013C55F804399847002CF9D1BDE838409F
:101C8C0000F054B8AC1D0008A81D0008704700BF38
:101C9C00704700BF2DE9F047DFF87CA00646DAF864
:101CAC00000098460F469146FFF7F0FF1B4B1B6850
:101CBC00D3F8484124B365681F2D26DC5EB96B1C34
:101CCC000235DAF80000636044F82570FFF7E0FF96
:101CDC000020BDE8F087012304EB8501C1F8889052
:101CEC00D4F88821AB401A43022EC4F88821C1F8DD
:101CFC000881E4D1D4F88C211343C4F88C31DEE78D
:101D0C0003F5A674C3F84841D5E7DAF80000FFF7ED
:101D1C00BFFF4FF0FF30DCE7300F00209C1D0008A8
:101D2C00F8B500BFF8BC08BC9E467047F8B500BFBC
:081D3C00F8BC08BC9E4670478C
:101D44005A484F4E474A494E475955414E000000A4
:101D5400323031342F30352F303100004153434974
:101D6400493A0000434F44453A0000000000000097
:101D74000000000001020304060708090000000037
:101D84000102030402030405060708090A0B0C0DEB
:0C1D94000E0F101001020000080B0020D0
:081DA0004D1C00083101000890
:041DA8000D01000821
:101DAC0000060AFE0AC600E000F000F80000000081
:101DBC000000000000000000000000000000000017
:101DCC00FCFCFC0000000000000000000000000013
:101DDC00000000000000000000F8F8F0B0B0B0B057
:101DEC00B0B0B0B0B0B0B0F8F8F80000000000002F
:101DFC0000000000F8F83030B0B0B0B0B0B0B0B007
:101E0C00B0B0B0B0B0303030F8F800000000784816
:101E1C00FE82BABA82BABA82BABA82BABA82FE0060
:101E2C0000000000000000000000000000000000A6
:101E3C0000000000000000FFFFFE06060606060676
:101E4C00FFFFFF06060606060606FFFFFF00000062
:101E5C000000000060606060606FEFEF67676767AD
:101E6C007F7F7F676767E7EFEF6F60606060000000
:101E7C0000000000FFFF3030313131F1F1313131F0
:101E8C00F1F1313131303030FFFF00000000000043
:101E9C000000000000000000000000000000000036
:101EAC000024A42E24E4242EA424000000F84A4C80
:101EBC0048F8484C4AF8001F1F0F0606060606068F
:101ECC00FFFFFF060606060606061F1F1F00000082
:101EDC0000000000000000000080BFFFF3F333336C
:101EEC00F3F3F33333F3FFBFBF0000000000000037
:101EFC0000000000FFFF0080C0F07E3F0F000000DC
:101F0C00FFFFC0C0C0C0C0C0FFFF0000C020101049
:101F1C00101020C00000C0201010101020C00000B5
:101F2C0000120A07027F02070A120000000B0A0ABD
:101F3C000A7F0A0A0A0B00000000000000000000E3
:101F4C003F3F3F00000000000000000000000000C8
:101F5C0000000000181C0C0E070703010D0C1C3CA4
:101F6C003F1F0F000000010303070F1E1E0000009F
:101F7C00000000001F1F0F0F0D0C0C0C0C0C0C0C98
:101F8C000C0C0C0C0C0C0C0C1F1F00001F204040E8
:101F9C004050205F80001F2040404050205F800058
:101FAC000000F010101010FF10101010F0000000C6
:101FBC0000000F04040404FF040404040F000000D8
:101FCC004040405F555555755555555F4040400054
:101FDC000040200F094989790909090F20400000A8
:101FEC0000FE02424ACA4A4ACA4A4A4202FE00005B
:101FFC0000FF40504C4340404F50505C40FF0000AD
:10200C000000F888888888FF88888888F800000095
:10201C0000001F080808087F888888889F80F000C7
:10202C0080828282828282E2A2928A868280800070
:10203C00000000000040807F000000000000000055
:10204C00101010FF109008888888FF888888080076
:10205C000444827F01808040432C102846818000FC
:10206C000010101010D030FF30D0121C10100000D7
:10207C0010080402010000FF000001020408100017
:10208C000000000000000000002F0000000007000E
:10209C00070000147F147F1400242A7F2A12006288
:1020AC006408132300364955225000000503000034
:1020BC0000001C224100000041221C000014083EBC
:1020CC0008140008083E0808000000A06000000882
:1020DC0008080808000060600000002010080402D6
:1020EC00003E5149453E0000427F40000042615194
:1020FC004946002141454B31001814127F1000272E
:10210C0045454539003C4A494930000171090503F0
:10211C0000364949493600064949291E0000363621
:10212C000000000056360000000814224100001484
:10213C001414141400004122140800020151090661
:10214C0000324959513E007C1211127C007F4949E2
:10215C004936003E41414122007F4141221C007F13
:10216C0049494941007F09090901003E4149497A21
:10217C00007F0808087F0000417F4100002040419B
:10218C003F01007F08142241007F40404040007F07
:10219C00020C027F007F0408107F003E4141413E4B
:1021AC00007F09090906003E4151215E007F091993
:1021BC0029460046494949310001017F0101003F90
:1021CC004040403F001F2040201F003F4038403F10
:1021DC000063140814630007087008070061514974
:1021EC00454300007F41410000552A552A55000007
:1021FC0041417F0000040201020400404040404085
:10220C00000001020400002054545478007F48441C
:10221C00443800384444442000384444487F003853
:10222C005454541800087E0901020018A4A4A47C7C
:10223C00007F080404780000447D40000040808446
:10224C007D00007F102844000000417F4000007C8E
:10225C0004180478007C080404780038444444389A
:10226C0000FC242424180018242418FC007C0804E6
:10227C00040800485454542000043F444020003CBF
:10228C004040207C001C2040201C003C4030403C46
:10229C00004428102844001CA0A0A07C00446454D6
:1022AC004C4414141414141400000000000000001A
:1022BC000000000000000000000000F8000000001A
:1022CC00000000333000000000100C06100C06005B
:1022DC00000000000000000040C07840C0784000C2
:1022EC00043F04043F040400007088FC0830000024
:1022FC00001820FF211E0000F008F000E01800007C
:10230C0000211C031E211E0000F008887000000034
:10231C001E2123241927211010160E000000000086
:10232C000000000000000000000000E018040200A3
:10233C00000000071820400000020418E000000014
:10234C000040201807000000404080F08040400012
:10235C000202010F01020200000000F00000000068
:10236C000101011F0101010000000000000000003C
:10237C0080B07000000000000000000000000000B1
:10238C00000101010101010100000000000000003A
:10239C0000303000000000000000000080601804D5
:1023AC00006018060100000000E010080810E000B2
:1023BC00000F102020100F00001010F8000000007B
:1023CC000020203F202000000070080808887000C2
:1023DC000030282422213000003008888848300042
:1023EC000018202020110E000000C02010F8000062
:1023FC0000070424243F240000F8088888080800FB
:10240C000019212020110E0000E01088881800000F
:10241C00000F112020110E0000380808C8380800E1
:10242C000000003F00000000007088080888700061
:10243C00001C222121221C0000E010080810E000E2
:10244C000000312222110F00000000C0C00000006B
:10245C000000003030000000000000800000000090
:10246C000000806000000000000080402010080088
:10247C000001020408102000404040404040400051
:10248C00040404040404040000081020408000002C
:10249C000020100804020100007048080808F00031
:1024AC000000003036010000C030C828E810E00001
:1024BC000718272423140B000000C038E00000008C
:1024CC00203C23020227382008F8888888700000F6
:1024DC00203F202020110E00C030080808083800CA
:1024EC00071820202010080008F808080810E00041
:1024FC00203F202020100F0008F88888E8081000E2
:10250C00203F20202320180008F88888E8081000B5
:10251C00203F200003000000C030080808380000ED
:10252C0007182020221E020008F808000008F808EE
:10253C00203F210101213F20000808F80808000075
:10254C000020203F2020000000000808F8080800A8
:10255C00C08080807F00000008F888C02818080020
:10256C00203F20012638200008F808000000000059
:10257C00203F20202020300008F8F800F8F8080050
:10258C00203F003F003F200008F830C00008F8084A
:10259C00203F200007183F00E01008080810E0005A
:1025AC000F10202020100F0008F808080808F00071
:1025BC00203F210101010000E01008080810E00094
:1025CC000F18242438504F0008F888888888700029
:1025DC00203F2000030C30200070880808083800C9
:1025EC000038202121221C00180808F808081800BF
:1025FC000000203F2000000008F808000008F80840
:10260C00001F202020201F000878880000C83808F0
:10261C00000007380E010000F80800F80008F80068
:10262C00033C0700073C0300081868808068180802
:10263C0020302C03032C30200838C800C838080080
:10264C000000203F2000000010080808C8380800CF
:10265C002038262120201800000000FE0202020073
:10266C000000007F40404000000C30C00000000023
:10267C00000000010638C00000020202FE0000004B
:10268C00004040407F0000000000040202020400F1
:10269C00000000000000000000000000000000002E
:1026AC008080808080808080000202040000000016
:1026BC00000000000000000000008080808000000E
:1026CC000019242222223F2008F8008080000000FC
:1026DC00003F112020110E000000008080800000BF
:1026EC00000E112020201100000000808088F800CE
:1026FC00000E112020103F20000080808080000000
:10270C00001F222222221300008080F08888881863
:10271C000020203F2020000000008080808080006E
:10272C00006B94949493600008F800808080000003
:10273C00203F210000203F200080989800000000DE
:10274C000020203F2020000000000080989800000E
:10275C0000C08080807F000008F80000808080002E
:10276C00203F24022D302000000808F80000000053
:10277C000020203F2020000080808080808080000E
:10278C00203F20003F20003F8080008080800000A0
:10279C00203F210000203F2000008080808000002E
:1027AC00001F202020201F0080800080800000005F
:1027BC0080FFA12020110E0000000080808080008E
:1027CC00000E112020A0FF8080808000808080007F
:1027DC0020203F21200001000000808080808000AC
:1027EC000033242424241900008080E08080000021
:1027FC000000001F2020000080800000008080006E
:10280C00001F202020103F208080800000808080CE
:10281C0000010E300806010080800080008080805E
:10282C000F300C030C300F00008080008080800083
:10283C000020312E0E3120008080800000808080AE
:10284C0080818E701806010000808080808080005E
:10285C000021302C2221300000000000807C02027C
:10286C0000000000003F404000000000FF0000009E
:10287C0000000000FF0000000002027C800000004D
:10288C000040403F00000000000601010202040469
:10289C0000000000000000000024F4000100000013
:1028AC00100000000000000000000000F40D0020EB
:1028BC005C0E0020C40E0020000000000000000090
:1028CC0000000000000000000000000000000000FC
:1028DC0000000000000000000000000000000000EC
:1028EC0000000000000000000000000000000000DC
:1028FC0000000000000000000000000000000000CC
:10290C0000000000000000000000000000000000BB
:10291C0000000000000000000000000000000000AB
:10292C00000000000000000000000000000000009B
:10293C00000000000000000000000000000000008B
:10294C00000000000000000000000000000000007B
:10295C0001000000000000000E33CDAB34126DE618
:10296C00ECDE05000B000000000000000000000081
:10297C00000000000000000000000000000000004B
:10298C00000000000000000000000000000000003B
:10299C00000000000000000000000000000000002B
:1029AC00000000000000000000000000000000001B
:042CDC00EC0F0020D9
:0400000508000911D5
:00000001FF
